:020000020000FC
:100A0000574553542F4541535420474F00004E4FF4
:100A1000525448312F322053544F500057455354AD
:100A20002F4541535420534C4F5700004E4F5254C2
:100A300048312F3220524541445900005745535404
:100A40002F454153542053544F5000004E4F5254A1
:100A500048312F3220474F00574553542F454153BB
:100A600054205245414459004E4F525448312F3280
:060A700020534C4F57001B
:020000001CC022
:1000380044C000E10EBF0FEF0DBF0FEF0ABB07BBB7
:10004800C29804BB01BB3BD004E007BF789410E022
:1000580009E005BB02BB3FD0FAE0E0E040D043D066
:10006800FAE0EEE03ED03FD055D002E105BB02BB3E
:1000780032D0FAE0ECE133D036D0FAE0ECE231D01D
:1000880032D058D004E205BB02BB25D0FAE0ECE33D
:1000980026D029D0FAE0ECE424D025D03BD002E1E8
:1000A80005BB02BB18D0FAE0E8E519D01CD0FAE08D
:1000B800E8E617D018D03ED0CBCF11E0189508E36A
:1000C80019D048D00EE016D001E014D043D006E095
:1000D80011D040D0089501E00DD03CD0089500E83B
:1000E80009C000EC07C00591003019F00BD032D0E0
:1000F800FACF08950BBBC098C198C29A37D0C2985E
:1001080030D008950BBBC09AC198C29A2FD0C2981C
:1001180028D008950DE80DBD0FE80CBD00E00FBD17
:1001280005E00EBD10FFFECF04E006BF00E00EBDE7
:100138001127089509EE0DBD0DE10CBD00E00FBDBE
:1001480005E00EBD10FFFECF04E006BF00E00EBDC7
:10015800112708952AEF3AEF3A95F1F72A95D9F73A
:10016800089524E100002A95E9F7089500000000A9
:020178000895E8
:00000001FF
